S01C00006373313230625F66696E616C5F70726F6A6563742E737265637E
S113000067C0000083C0000081C000007FC0000002
S11300107DC000007BC0000079C0000077C00000F4
S113002075C0000073C0000071C000006FC0000004
S11300306DC00000CFC1000069C0000067C00000AF
S113004065C0000063C0000061C000005FC0000024
S11300505DC000005BC0000059C0000057C0000034
S113006055C0000053C0000051C000004FC0000044
S11300704DC000004BC0000049C0000047C0000054
S113008045C0000043C0000041C000007C077F075A
S11300907F077F077F077F077F0754077F077F0757
S11300A07F077F077F076107E805040620063C06F3
S11300B0580674069006AC06C8067F077F077F07BC
S11300C07F077F077F077F07E40600071C073807C1
S11300D011241FBECFEFD0E4DEBFCDBF11E0A0E0FE
S11300E0B1E0E2E1F3E100E00BBF02C007900D9242
S11300F0AA3AB107D9F721E0AAEAB1E001C01D92FA
S1130100A03DB207E1F703D70C94870979CFCF92CA
S1130110DF92EF92FF926B017C019B01AC01609135
S1130120000170910101809102019091030147D770
S1130130882309F454C020E030E0A901C701B601C6
S11301403ED7811106C0E1E9F0E0808188708083A8
S113015005C0E1E9F0E080818360808328E539E32C
S113016044E75FE3C701B6012AD788233CF48FEF45
S11301709FEF909399008093980025C020E034E28B
S113018044EF56E4C701B6010E94F10818162CF496
S1130190109299001092980016C020E030E040E0E0
S11301A053E4C701B6010E94F5089B01AC0160E06D
S11301B074E284EF9AE407D76ED7615071097093A3
S11301C09900609398001092950010929400C09248
S11301D00001D0920101E0920201F0920301FF902C
S11301E0EF90DF90CF90089580E4809390008BE0AF
S11301F08093910060E070E0CB0189CF0895109264
S11302009000109291000895813081F0E1ECF0E0CB
S1130210808188618083E2ECF0E080818660808365
S113022083E38093C4001092C5000895E9ECF0E0E4
S1130230808188618083EAECF0E08081866080833D
S113024083E38093CC001092CD000895813029F48B
S11302508091C800882374F008958091C000882399
S11302608CF4A6ECB0E0E0ECF0E08C918081882383
S1130270E4F30895AEECB0E0E8ECF0E08C9180811A
S11302808823E4F30895613041F0E0ECF0E09081DC
S113029095FFFDCF8093C6000895E8ECF0E09081CF
S11302A095FFFDCF8093CE000895813041F0E0ECBE
S11302B0F0E080818823ECF78091C6000895E8EC93
S11302C0F0E080818823ECF78091CE0008958FEED2
S11302D082B90000009B29C0019B29C0029B29C050
S11302E0039B29C08FED82B90000009B26C0019BAF
S11302F026C0029B26C0039B26C08FEB82B9000058
S1130300009B23C0019B23C0029B23C0039B23C0EB
S11303108FE782B90000009B20C0019B20C0029B94
S113032020C0039B20C080E0089581E3089584E306
S1130330089587E308958AE2089582E3089585E3A2
S1130340089588E3089580E3089583E3089586E398
S1130350089589E3089583E2089581E4089582E489
S1130360089583E4089584E4089560930A017093E2
S11303700B0180930C0190930D016093BA0170936B
S1130380BB018093BC019093BD0108958BE08093E1
S113039081008DE790E0909389008093880082E04B
S11303A080936F00109285001092840080910A015E
S11303B090910B01A0910C01B0910D018093BA01B1
S11303C09093BB01A093BC01B093BD018FB780682B
S11303D08FBF08951F920F920FB60F9211248F931F
S11303E09F93AF93BF938091BA019091BB01A09169
S11303F0BC01B091BD010197A109B1098093BA0173
S11304009093BB01A093BC01B093BD01892B8A2BAF
S11304108B2B99F481E08093BE0180910A01909125
S11304200B01A0910C01B0910D018093BA0190933E
S1130430BB01A093BC01B093BD01BF91AF919F914B
S11304408F910F900FBE0F901F90189518161906D4
S11304505CF00895000021503109E1F74F5F5F4FD0
S11304608417950719F4089540E050E027E033E03D
S1130470F1CF5E9888B95F9A00005F9882E090E0BF
S1130480E5CF089581E090E0F4CF0895813118F428
S11304908158EFCF08958155ECCF089584E690E01C
S11304A0D5DF88E390E0E5DF86E090E0E2DF8FE0EF
S11304B090E0DFDF81E090E0DCDF8AE090E0C6CF0F
S11304C008955E9A88B95F9A00005F9881E090E091
S11304D0BDCF08950F931F93CF93DF93182FEB0194
S11304E0D1DF8881882359F001E0010F812F90E04A
S11304F0CDDF8991E6DF102F88818111F5CFDF915F
S1130500CF911F910F9108958091B1018130C1F570
S11305108091AE018130A1F58091BF01813051F00D
S113052028F0823059F0833069F00FC081E0809365
S1130530BF0118C082E08093BF0119C083E080939B
S1130540BF011AC01092BF0108C0813059F028F0D1
S1130550823069F08330A1F40FC085B18095817039
S113056085B9089585B18095827085B9089585B15E
S11305708095847085B9089585B18095887085B912
S113058008958091B101813089F58091AE01813067
S113059069F58091C001882319F0813071F01DC084
S11305A071DF6EE071E081E095DF84E690E04EDF7C
S11305B01BDE81E08093C00114C08091AF018130C3
S11305C029F41092AF011092C00108950DDE81E06C
S11305D08093C0018AE090E039DF8091C0018130CE
S11305E029F460E070E88BE395E491CD089580915F
S11305F0C701813091F020F0823009F487C008955A
S11306006FE171E085E066DF84E690E01FDF109221
S1130610B10181E08093C70108958091AA018130DE
S113062069F41092AA011092B5011092B8011092C7
S1130630AD018091C901811156C008958091AD0129
S1130640853009F0DCC08091B501813009F0E0C04B
S11306508091B1018111DCC04091B801E1ECF1E07D
S1130660A4E0B1E026EC31E091918D91981301C0A2
S11306704F5F2E173F07C1F74093B8014530C9F4C7
S113068001DF62E271E086E025DF84E690E0DEDEF1
S113069081E08093AE018093AA011092B50110927B
S11306A0B80182E08093C7018091C901811116C00D
S11306B0089568E271E081E00DDF84EF91E0C6DE29
S11306C01092AD011092AC011092B5011092B801D4
S11306D081E08093C9018093C70105C08091AD0179
S11306E0853009F495C08091B001811191C01092B8
S11306F0B5011092AC0184E690E0A8DE64E371E0F9
S113070081E0E8DE84E690E0A1CE08958091AA011C
S1130710813059F41092AA011092B5011092AD01E2
S11307208091C901811158C008958091AD0185302F
S113073009F06AC08091B501813009F069C08091E7
S1130740B101811165C09EDE4091B801E1ECF1E098
S1130750A4E0B1E026EC31E091918D91981301C0B1
S11307604F5F2E173F07C1F74093B8014530D1F4CE
S113077089DE6FE171E085E0ADDE84E690E066DE5F
S113078081E08093AA011092AE011092B1011092FF
S1130790B8011092B5018093C7018091C9018111FC
S11307A017C0089560E471E081E094DE84EF91E085
S11307B04DDE1092AD011092AC011092B501109271
S11307C0B80181E08093C90182E08093C70104C02D
S11307D08091AD018530E1F08091B001811118C0A4
S11307E01092B5011092AC0184E690E02FDE64E330
S11307F071E081E06FDE84E690E028CE0895809178
S1130800C901811170CF08958091C9018111E4CF8C
S11308100895CF938091C60181117FC08091C90151
S11308208823B1F08091B001813091F41092C90114
S11308301092AD011092AC011092B8011092B50162
S113084021DE64E371E081E045DE84E690E0FEDDD4
S11308508091AD01853009F060C08091B50181308F
S113086009F05BC08091B001813009F056C040911D
S1130870B801E4E0F1E0A1ECB1E029E031E09191CC
S11308808D91981301C04F5FE217F307C1F74093AE
S1130890B801453051F5F6DD6EE471E081E01ADE11
S11308A01092B0011092B101C1E0C093AE0115B82D
S11308B0A6DC1092AD011092B8011092B60110920C
S11308C0B0011092B501C093AF0184EF91E0BEDD99
S11308D0D9DD62E271E086E0FDDD84E690E0B6DD1C
S11308E082E08093C70183DE18C0CCDD68E271E04A
S11308F081E0F0DD1092B50181E08093C90180931D
S1130900B0011092AD011092AC011092B80184EFC5
S113091091E09CDD1092C6017CDFCF910895EF92A7
S1130920FF920F931F93CF93DF938091C80181119E
S11309301AC18091B601882309F40BC18091B101D9
S1130940811115C01092AD011092AC011092B80142
S11309501092B6011092B50181E08093B20192DD4C
S11309606FE571E081E0B6DD84E690E06FDD8091B3
S1130970AD01853009F0F7C08091B501813009F0EF
S1130980EDC08091B201813009F051C08091B10174
S113099081114DC04091B801E4E0F1E0A1ECB1E077
S11309A029E031E091918D91981301C04F5FE217D6
S11309B0F307C1F74093B8014530B1F41092AD018B
S11309C01092AC011092B6011092B5011092B201CE
S11309D081E08093B30156DD6FE671E081E07ADD5A
S11309E084E690E033DD19C04DDD68E271E081E01A
S11309F071DD81E08093B6011092B5011092B201CD
S1130A001092B3011092AD011092AC011092B80192
S1130A1084EF91E01BDD1092C8018091AD01853017
S1130A2009F0A1C08091B501813009F09CC080918A
S1130A30B301813029F58091B101811121C0E1EC2C
S1130A40F1E0AAECB1E026EC31E081918D932E1710
S1130A503F07D9F717DD6FE771E081E03BDD84E6FE
S1130A6090E0F4DC1092AD011092AC011092B80148
S1130A701092B3011092B50181E08093B40173C068
S1130A808091B401813009F06EC08091B10181116F
S1130A906AC04091B8010AEC11E0A1ECB1E02FEC7E
S1130AA031E0F80191918D91981301C04F5FE217E5
S1130AB0F307C1F74093B801453089F5E3DC61E9F8
S1130AC071E081E007DDC4E0D1E00F2EF9E0EF2E04
S1130AD0F1E0FF2EF02DF80161918F01688370E041
S1130AE08C2F90E0F3D32196CE15DF05A1F7109259
S1130AF0AD011092B8011092B5011092B401109298
S1130B00B30184EF91E0A2DC6DE971E081E0E2DC05
S1130B1088EE93E09BDC1092C70169DD24C0B2DC4F
S1130B2068E271E081E0D6DC81E08093B601109246
S1130B30B5011092B4011092B3011092AD0110925C
S1130B40AC011092B80184EF91E080DC1092C801EE
S1130B500AC08091AD01853031F40ECF8091B5018A
S1130B60813009F48DCFDF91CF911F910F91FF90C8
S1130B70EF9008958091B701813009F0C7C1A7DBD8
S1130B809091CF019111C0C19091C00095FF02C016
S1130B9060E079DB8091C00088230CF0B0C180E074
S1130BA084DBE82F8091AC01853038F0EA3209F417
S1130BB07BC1E33209F0A8C19FC18E2F90E0FC01F4
S1130BC0B397E232F10508F09AC1EA5BFF4F70C3B4
S1130BD081E08093B9018091AD018F5E57DC8AE298
S1130BE070DC8091AD01E82FF0E0EF53FE4F90915F
S1130BF0B901905D90838F5F8093AD018091AC01CA
S1130C008F5F8093AC017BC182E08093B9018091B6
S1130C10AD018F5E3BDC8AE254DC8091AD01E82FAC
S1130C20F0E0EF53FE4F9091B901905D90838F5F98
S1130C308093AD018091AC018F5F8093AC015FC163
S1130C4083E08093B9018091AD018F5E1FDC8AE25D
S1130C5038DC8091AD01E82FF0E0EF53FE4F909126
S1130C60B901905D90838F5F8093AD018091AC0159
S1130C708F5F8093AC0143C184E08093B90180917C
S1130C80AD018F5E03DC8AE21CDC8091AD01E82FAC
S1130C90F0E0EF53FE4F9091B901905D90838F5F28
S1130CA08093AD018091AC018F5F8093AC0127C12B
S1130CB085E08093B9018091AD018F5EE7DB8AE224
S1130CC000DC8091AD01E82FF0E0EF53FE4F9091EE
S1130CD0B901905D90838F5F8093AD018091AC01E9
S1130CE08F5F8093AC010BC186E08093B901809142
S1130CF0AD018F5ECBDB8AE2E4DB8091AD01E82FAE
S1130D00F0E0EF53FE4F9091B901905D90838F5FB7
S1130D108093AD018091AC018F5F8093AC01EFC0F3
S1130D2087E08093B9018091AD018F5EAFDB8AE2E9
S1130D30C8DB8091AD01E82FF0E0EF53FE4F9091B6
S1130D40B901905D90838F5F8093AD018091AC0178
S1130D508F5F8093AC01D3C088E08093B901809108
S1130D60AD018F5E93DB8AE2ACDB8091AD01E82FAD
S1130D70F0E0EF53FE4F9091B901905D90838F5F47
S1130D808093AD018091AC018F5F8093AC01B7C0BB
S1130D9089E08093B9018091AD018F5E77DB8AE2AF
S1130DA090DB8091AD01E82FF0E0EF53FE4F90917E
S1130DB0B901905D90838F5F8093AD018091AC0108
S1130DC08F5F8093AC019BC08AE08093B9018091CE
S1130DD0AD018F5E5BDB8AE274DB8091AD01E82FAD
S1130DE0F0E0EF53FE4F9091B901995C90838F5FCF
S1130DF08093AD018091AC018F5F8093AC017FC083
S1130E008BE08093B9018091AD018F5E3FDB8AE274
S1130E1058DB8091AD01E82FF0E0EF53FE4F909145
S1130E20B901995C90838F5F8093AD018091AC018F
S1130E308F5F8093AC0163C08CE08093B901809193
S1130E40AD018F5E23DB8AE23CDB8091AD01E82FAC
S1130E50F0E0EF53FE4F9091B901995C90838F5F5E
S1130E608093AD018091AC018F5F8093AC0147C04A
S1130E708DE08093B9018091AD018F5E07DB8AE23A
S1130E8020DB8091AD01E82FF0E0EF53FE4F90910D
S1130E90B901995C90838F5F8093AD018091AC011F
S1130EA08F5F8093AC012BC08091AB018F5F8093E7
S1130EB0AB01853021F581E08093B6011092AB013E
S1130EC01EC01092B9018091AD018F5EDFDA8AE213
S1130ED0F8DA8091AD01E82FF0E0EF53FE4F9091E6
S1130EE0B901905D90838F5F8093AD018091AC01D7
S1130EF08F5F8093AC0103C081E08093B5011092B1
S1130F00CF018091B90188B980E0A0C9089580EF2C
S1130F1081B98FE082B98FEF84B915B887B918B851
S1130F208AB91BB869E170E080E090E01EDA2EDA3D
S1130F3080E06AD980E08AD9B1DAC4E0D1E00AE07D
S1130F4011E0CE019927BDD18993C017D107C9F704
S1130F501092C7011092CF011092C8011092C001E3
S1130F601092BF011092C601C1E0D0E0019B06C0FF
S1130F708091AE01813011F4C093B10180B19C2FF6
S1130F80282F217080FD9D2F9093C901211107C046
S1130F908091B101813081F4C093B0010DC039DC7E
S1130FA026DBE8DDBCDCEDDAAFDA8091BE01882314
S1130FB0E1F3D093BE01DACFC093B701F0CF9CD058
S1130FC008F481E008950CD0D2C0CAD040F0C1D05A
S1130FD030F021F45F3F19F0B3C05111FCC0B6C02A
S1130FE0D7D098F39923C9F35523B1F3951B550B27
S1130FF0BB27AA2762177307840738F09F5F5F4FE8
S1131000220F331F441FAA1FA9F333D00E2E3AF028
S1131010E0E830D091505040E695001CCAF729D042
S1131020FE2F27D0660F771F881FBB1F2617370791
S11310304807AB07B0E809F0BB0B802DBF01FF27C1
S113104093585F4F2AF09E3F510568F079C0C3C0A2
S11310505F3FECF3983EDCF3869577956795B795FB
S1131060F7959F5FC9F7880F911D9695879597F916
S11310700895E1E0660F771F881FBB1F621773078F
S11310808407BA0720F0621B730B840BBA0BEE1FA4
S113109088F7E095089504D06894B1119CC0089530
S11310A07FD088F09F5790F0B92F9927B751A0F0BF
S11310B0D1F0660F771F881F991F1AF0BA95C9F7E8
S11310C012C0B13081F086D0B1E0089583C0672F9B
S11310D0782F8827B85F39F0B93FCCF38695779598
S11310E06795B395D9F73EF4909580957095619581
S11310F07F4F8F4F9F4F0895990F0008550FAA0BEC
S1131100E0E8FEEF16161706E807F907C0F0121616
S11311101306E407F50798F0621B730B840B950B19
S113112039F40A2661F0232B242B252B21F408956E
S11311300A2609F4A140A6958FEF811D811D08950B
S113114097F99F6780E870E060E008959FEF80EC76
S1131150089500240A941616170618060906089519
S113116000240A9412161306140605060895092E7F
S11311700394000C11F4882352F0BB0F40F4BF2BEE
S113118011F460FF04C06F5F7F4F8F4F9F4F08952E
S113119057FD9058440F551F59F05F3F71F0479524
S11311A0880F97FB991F61F09F3F79F08795089509
S11311B0121613061406551FF2CF4695F1DF08C028
S11311C0161617061806991FF1CF86957105610545
S11311D008940895E894BB2766277727CB0197F9ED
S11311E008958ADF08F48FEF08950BD0C0CFB1DFE4
S11311F028F0B6DF18F0952309F0A2CFA7CF112469
S1131200EACFC6DFA0F3959FD1F3950F50E0551FA9
S1131210629FF001729FBB27F00DB11D639FAA2747
S1131220F00DB11DAA1F649F6627B00DA11D661F96
S1131230829F2227B00DA11D621F739FB00DA11DB7
S1131240621F839FA00D611D221F749F3327A00D71
S1131250611D231F849F600D211D822F762F6A2F0D
S113126011249F5750408AF0E1F088234AF0EE0F92
S1131270FF1FBB1F661F771F881F91505040A9F79F
S11312809E3F510570F05CCFA6CF5F3FECF3983ED4
S1131290DCF3869577956795B795F795E7959F5F06
S11312A0C1F7FE2B880F911D9695879597F90895A0
S11312B0EE0FFF1F0024001C0BBE0790F691E02DDB
S11312C00994A8E1B0E042E050E005C012D0272F15
S11312D011C0DC01CB01FC01F999FECF06C0F2BDBF
S11312E0E1BDF89A319600B40D9241505040B8F7E0
S11312F00895262FF999FECF1FBA92BD81BD20BD56
S11313000FB6F894FA9AF99A0FBE01960895F894D4
S1051310FFCF09
S1131312000080BF303030303000010000004D4FFB
S113132254494F4E204445544543544544210044B6
S1131332495341524D454400496E76616C696420BB
S113134250696E00456E7465722050696E3A2000D1
S1131352496E76616C69642050696E3A2000416C72
S113136261726D205475726E6564204F6666004525
S11313726E746572204F6C642050696E3A20004589
S11313826E746572206E65772050696E3A20005241
S113139265656E746572206E65772050696E3A20B9
S11313A2004E65772050696E205365740052656261
S10D13B26F6F74696E672E2E2E0013
S9030000FC
